:100000000C9454010C9471010C9471010C947101C5
:100010000C9473010C9471010C9471010C94710196
:100020000C9471010C9471010C9471010C94710188
:100030000C9471010C9471010C9471010C94710178
:100040000C9471010C9471010C9471010C94710168
:100050000C947101485454502F312E3020343034D8
:10006000204E6F7420466F756E640D0A436F6E7478
:10007000656E742D547970653A20746578742F68B4
:10008000746D6C3B20636861727365743D77696E53
:10009000646F77732D313235310D0A536572766591
:1000A000723A2041546D65676131360D0A0D0A3C84
:1000B0007072653E50616765206E6F7420666F7563
:1000C0006E640D0A0D0A3C6120687265663D272F3B
:1000D000273E486F6D6520706167653C2F613E3C2F
:1000E0002F7072653E0D0A00485454502F312E3047
:1000F00020323030204F4B0D0A436F6E74656E74A2
:100100002D547970653A20746578742F68746D6C1D
:100110003B20636861727365743D77696E646F77C5
:10012000732D313235310D0A5365727665723A207E
:1001300041546D65676131360D0A0D0A003C2F7020
:1001400072653E00D1E2E5F2EEE4E8EEE420E2EA98
:10015000EBFEF7E5ED2E203C6120687265663D27D9
:100160002F3F6C65643D6F6666273EC2FBEAEBFE7F
:10017000F7E8F2FC3C2F613E2E00D1E2E5F2EEE41E
:10018000E8EEE420E2FBEAEBFEF7E5ED2E203C6131
:1001900020687265663D272F3F6C65643D6F6E2752
:1001A0003EC2EAEBFEF7E8F2FC3C2F613E2E004C2B
:1001B0006564206973204F4E2E205475726E203C6A
:1001C0006120687265663D272F3F6C65643D6F66F0
:1001D00066273E6F66663C2F613E2E004C656420AC
:1001E0006973204F46462E205475726E203C612064
:1001F000687265663D272F3F6C65643D6F6E273ED4
:100200006F6E3C2F613E2E003C7020616C69676E02
:100210003D277269676874273E5B3C6120687265A0
:10022000663D272F3F6C616E673D656E273E454EEC
:100230003C2F613E207C203C623E52553C2F623E6A
:100240005D3C2F703E003C7020616C69676E3D27FD
:100250007269676874273E5B3C623E454E3C2F6284
:100260003E207C203C6120687265663D272F3F6CF4
:10027000616E673D7275273E52553C2F613E5D3C75
:100280002F703E003C7072653E00727500656E0016
:100290006C616E67006F6666006F6E006C6564006F
:1002A0002F0047455420000011241FBECFE5D8E0A1
:1002B000DEBFCDBF14E0A0E6B0E0E4EBFBE202C09D
:1002C00005900D92AA36B107D9F717E0AAE6B4E077
:1002D00001C01D92A532B107E1F70E94FA120C94F9
:1002E000D8150C9400001F920F920FB60F92112494
:1002F0002F933F938F939F93AF93BF932091A90424
:100300003091AA042F5F3F4F3093AA042093A90491
:100310008091AF049091B004A091B104B091B20467
:100320000196A11DB11D8093AF049093B004A093DA
:10033000B104B093B204285E3340B9F48091AB04A9
:100340009091AC04A091AD04B091AE040196A11DB2
:10035000B11D8093AB049093AC04A093AD04B09313
:10036000AE041092AA041092A904BF91AF919F917C
:100370008F913F912F910F900FBE0F901F90189566
:100380008DE085BD8DE783BD89B7806889BF0895FD
:10039000F89420E060EF70E0A5E330E240E051E047
:1003A00080FF09C0D19A932F9A95F1F7D198FA015D
:1003B0003197F1F708C0D19AFB013197F1F7D19845
:1003C0009A2F9A95F1F72F5F283011F08695E8CF94
:1003D00078940895F89480E020E060E230E34CEDFA
:1003E00050E08695D19A962F9A95F1F7D198932F50
:1003F0009A95F1F7C9998068FA013197F1F72F5F63
:10040000283079F778940895F894D19A80E897E0A5
:100410000197F1F7D19888E191E00197F1F789B35D
:10042000E8E6F6E03197F1F778948695809581704B
:100430000895FC0190E048E111C0308128E0832F4D
:10044000892780FF04C094279695906801C09695EF
:10045000215011F03695F3CF31966150662369F73C
:10046000892F08950E940402882339F08CEC0E94A1
:10047000C80184E40E94C80181E00895EF92FF92D0
:100480000F931F93DF93CF93CDB7DEB728970FB6A7
:10049000F894DEBF0FBECDBF0E940402882361F135
:1004A0008CEC0E94C8018EEB0E94C8018E010F5F88
:1004B0001F4F99E0E92EF12CEC0EFD1E0E94EA017F
:1004C000F80181938F01EE15FF05C1F70E94EA0143
:1004D000182FCE01019668E00E941902181761F4E6
:1004E0009A8180E0298130E0282B392B84E03595F2
:1004F00027958A95E1F702C02FEF3FE7C9012896BB
:100500000FB6F894DEBF0FBECDBFCF91DF911F9124
:100510000F91FF90EF9008958FB9779BFECF8FB129
:100520000895C498962F9F71982B9FB9779BFECF03
:100530008FB167FF05C08FEF8FB9779BFECF8FB16B
:100540008FEF8FB9779BFECF8FB1C49A0895C4986F
:100550006F71682B6FB9779BFECF8FB14FB9779BC7
:10056000FECF8FB1C49A0895C4988FEF8FB9779B4F
:10057000FECF8FB1C49A10926A0480EA9FE001977F
:10058000F1F708951F93482F80936D0490E08F71C9
:1005900090704B97B4F4142F129516951370109316
:1005A0006D0480916A04181761F080EA6FE143E0FE
:1005B0000E94A70280E86FE1412F0E94A7021093DA
:1005C0006A041F9108951F93182F0E94C20280E0B1
:1005D000612F0E9491021F910895FF920F931F9324
:1005E000F82E0E94C20280E06F2D0E949102082F17
:1005F000F39480E06F2D0E949102382F20E010E0EC
:10060000022B132BC8011F910F91FF9008950F9398
:100610001F93182F062F80936D040E94C20200932F
:100620006D0480E4612F402F0E94A7021F910F915B
:100630000895FF920F931F93182F062FF72E0E94F5
:10064000C20280E4612F402F0E94A7021F5F80E456
:10065000612F4F2D0E94A7021F910F91FF900895C7
:100660000F931F93182F062F0E94C20280EA612F5A
:10067000402F0E94A7021F910F9108950F931F937F
:10068000182F062F0E94C20280E8612F402F0E947F
:10069000A7021F910F910895FC01C4988AE38FB9B6
:1006A000779BFECF8FB19FEF07C09FB9779BFECF9F
:1006B0008FB181936150704061157105B1F7C49A93
:1006C0000895FC01C4988AE78FB9779BFECF8FB15C
:1006D00008C080818FB9779BFECF31968FB1615072
:1006E000704061157105A9F7C49A0895682F84EDCB
:1006F0000E94070382ED61E00E943E038AEE0E94A1
:10070000E30280FDFBCF82ED61E00E94300388EDC3
:100710000E94ED0208950F931F93982F8B0184ED93
:10072000692F0E94070386EDB8010E9419038AEE23
:100730000E94E30280FDFBCF1F910F9108950F935C
:100740001F938C0187B3806B87BBBE98C49A80E5EA
:100750008DB9709A0E94B40288E060E070E00E9457
:1007600019038CE060E070E00E9419038AE06FEFEB
:1007700079E10E94190310926C0410926B0481ECD1
:1007800080936D0480EC6DE00E94070382EC63E3CC
:100790000E9407038AEC60E072E00E94190384EC77
:1007A00065E10E94070386EC62E10E94070387EC83
:1007B0006CE00E94070384EEF80160810E94070349
:1007C00085EEF80161810E94070382EEF8016281E3
:1007D0000E94070383EEF80163810E94070380EE05
:1007E000F80164810E94070381EEF80165810E948F
:1007F000070380E060E071E00E948B0380E160E02D
:1008000071E00E948B0384E166E774E00E948B0331
:100810008FE164E00E943E031F910F9108950F93B2
:100820001F93CF93DF938C01EB010DC08CE10E94ED
:10083000E30281FF08C08FE160E80E943E038FE180
:1008400060E80E9430038FE10E94E30283FDEECF57
:1008500082E060E07AE10E94190380E690E061E0C6
:1008600070E00E946103C801BE010E94610384E040
:1008700060E07AE10E941903C050D64E86E0BE01C6
:100880000E9419038FE168E00E943E03DF91CF913F
:100890001F910F910895EF92FF920F931F93DF9393
:1008A000CF9300D000D0CDB7DEB77C01162F072F35
:1008B00089E30E94E302882319F400E010E03DC0C0
:1008C00060916B0470916C0480E00E9419038BE6C8
:1008D00094E062E070E00E944C03CE01019662E079
:1008E00070E00E944C03CE01039662E070E00E942B
:1008F0004C038B8187FD03C000E010E010C04981EC
:100900005A8144505040812F902F9C0189014217F9
:10091000530708F48A01C701B8010E944C03609193
:100920006B0470916C04615070407F718CE00E9488
:1009300019038EE160E40E943E03C8010F900F90FE
:100940000F900F90CF91DF911F910F91FF90EF903B
:100950000895AF92BF92CF92DF92EF92FF920F93E2
:100960001F93FC01E480F5800681178180E090E010
:10097000DE2CCC24BB24AA24212F3327442755273F
:10098000A22AB32AC42AD52A5527412F302F2F2D2A
:10099000207040705070A22AB32AC42AD52A102F82
:1009A0000F2DFE2CEE2420E030E04FEF50E0E2224D
:1009B000F32204231523AE28BF28C02AD12A6A0DAA
:1009C0007B1D8C1D9D1D208531854285538524838B
:1009D000358346835783162F0027FF24EE24292FC3
:1009E000332744275527E22AF32A042B152B272FD8
:1009F000382F492F5527207040705070E22AF32A73
:100A0000042B152B982F872F762F66276070707018
:100A10009070E62AF72A082B192BE086F1860287C8
:100A200013871F910F91FF90EF90DF90CF90BF90B1
:100A3000AF900895EF92FF920F931F93CF93DF93A0
:100A40007B018C01EA01A901FE010FC0708160E009
:100A5000818190E0862B972BA0E0B0E0E80EF91E94
:100A60000A1F1B1F3296225030402230310570F78A
:100A7000FA01EE7FEC0FFD1F40FF11C0908180E076
:100A8000A0E0B0E008C02FEF3FEF40E050E0E222EE
:100A9000F32204231523E80EF91E0A1F1B1FC801A9
:100AA000AA27BB270097A105B10569F73E2D2F2D79
:100AB00020953095C901DF91CF911F910F91FF9043
:100AC000EF9008959B01AC0180916F0490917004A8
:100AD000A0917104B091720482179307A407B5071F
:100AE00019F480E090E022C08091790490917A041A
:100AF000A0917B04B0917C0482179307A407B507EB
:100B000019F481E090E012C08091830490918404F4
:100B1000A0918504B091860482179307A407B507B6
:100B200019F020E030E00EC082E090E09C0163E02C
:100B3000220F331F6A95E1F7880F991F280F391F7D
:100B40002D583B4FC901089520E080919D0490915C
:100B50009E04A0919F04B091A0040097A105B10547
:100B600009F021E0822F089582E194E00E949F0322
:100B70008091AB049091AC04A091AD04B091AE040F
:100B80000296A11DB11D8093950490939604A093A5
:100B90009704B09398040895CF92DF92EF92FF925A
:100BA0000F931F93DF93CF9300D000D000D0CDB729
:100BB000DEB7DE011196E8E1F4E086E001900D92E7
:100BC0008150E1F703EB14E0EEE0EE2EF12CE00EA5
:100BD000F11E72E2C72ED12CC00ED11E8FEF9FEFF7
:100BE000AFEFBFEFF701808B918BA28BB38B80ECC3
:100BF00090ECA0ECB0EC84879587A687B78781E15D
:100C000081878CE393ECF601938382838CE392ECEF
:100C10009093D6048093D504D8019A96E2E6F0E04A
:100C20008BE101900D928150E1F780E093E2F601B3
:100C3000958384831782168264E370E080E090E0FD
:100C40004DEC54E02BE230E00E941A05F601978348
:100C50008683D02EC12E9801D901FE01319686E0FF
:100C600001900D928150E1F788E090E09093C004EC
:100C70008093BF0485E48093C104F701118280E072
:100C800097E393838283158214821782168280E40D
:100C900080871386128680EC90ECA0ECB0EC848701
:100CA0009587A687B78760E070E080E090E041EC30
:100CB00054E024E130E00E941A05F701938782870F
:100CC000A9EBB4E0E2E1F4E086E001900D928150FE
:100CD000E1F78D2D9C2D65E470E00E940F042696AF
:100CE0000FB6F894DEBF0FBECDBFCF91DF911F913D
:100CF0000F91FF90EF90DF90CF9008950F931F9387
:100D0000182F092FAC014A5F5F4F9C01D901FA01EE
:100D100086E001900D928150E1F7DA01E2E1F4E022
:100D200086E001900D928150E1F7625F7F4F812F45
:100D3000902F0E940F041F910F910895EF92FF9240
:100D40000F931F93CF93DF937C018B018EE790E08D
:100D50000E9480148DE00E947C140C31110508F46F
:100D6000CDC0E7012E96F70186859785805091408A
:100D700009F0C4C08A819B81089709F0BFC0288D03
:100D8000398D4A8D5B8D80919D0490919E04A09138
:100D90009F04B091A004281739074A075B0709F0A0
:100DA000ADC08E819F8121E08030920729F0805074
:100DB000924009F0A3C038C089E890E00E948014F6
:100DC0008DE00E947C1480E092E09F838E839701E7
:100DD0002A5E3F4FD7019096F90186E001900D926F
:100DE0008150E1F7D901E2E1F4E086E001900D9253
:100DF0008150E1F78E859F85A889B989888F998F61
:100E0000AA8FBB8F80919D0490919E04A0919F0416
:100E1000B091A0048E879F87A88BB98BC7016CE126
:100E200070E00E947E066AC02E853F8548895989F8
:100E300080916F0490917004A0917104B09172043C
:100E400082179307A407B50709F458C08091790465
:100E500090917A04A0917B04B0917C04821793074F
:100E6000A407B50709F44AC08091830490918404D3
:100E7000A0918504B091860482179307A407B50753
:100E8000E9F18DE990E00E9480148DE00E947C14CD
:100E900020916E04822F90E0FC0103E0EE0FFF1F13
:100EA0000A95E1F7880F991FE80FF91FE159FB4FE9
:100EB0008E859F85A889B98980839183A283B38316
:100EC000822F90E0FC01B3E0EE0FFF1FBA95E1F72F
:100ED000880F991FE80FF91FED58FB4FD701569661
:100EE00086E00D9001928150E1F780916E048F5F52
:100EF00080936E04833011F410926E04DF91CF91D1
:100F00001F910F91FF90EF900895CF92DF92EF9293
:100F1000FF920F931F936C017B018C01025F1F4FA7
:100F200084E190E0E80EF91EF801F282E382158276
:100F300014821782168280E4808713861286848545
:100F40009585A685B785808B918BA28BB38B80917D
:100F50009D0490919E04A0919F04B091A004848769
:100F60009587A687B78760E070E080E090E0A801F1
:100F700024E130E00E941A05F80193878287C601B8
:100F8000B7010E947E061F910F91FF90EF90DF90B6
:100F9000CF900895EF92FF920F931F93CF93DF931B
:100FA000EC017B016830710500F18E010E5D1F4F71
:100FB0008AA1883099F481EB90E00E9480148DE042
:100FC0000E947C141AA2F80182819381089693836F
:100FD0008283CE01B7010E94850707C085EC90E0AF
:100FE0000E9480148DE00E947C14DF91CF911F91AC
:100FF0000F91FF90EF900895CF92DF92EF92FF92C2
:101000000F931F937C018C010E5D1F4F88E0C82E4B
:10101000D12CC60ED71E20919D0430919E04409184
:101020009F045091A004F701268F378F40A351A34E
:1010300042A153A1F80122813381F70133A322A3F6
:10104000F80153834283D482C58217821682675E79
:101050007F4F80E090E0A701465E5F4F9601285FDA
:101060003F4F0E941A05F80197838683C701B60196
:101070000E9485071F910F91FF90EF90DF90CF9016
:101080000895DC011696E2E1F4E026E001900D926D
:101090002150E1F7625F7F4F0E940F040895625F65
:1010A0007F4F0E940F040895CF92DF92EF92FF923C
:1010B0000F931F936C017B018C01025F1F4FCB01CB
:1010C0004496F801928383831386128660E070E071
:1010D00080E090E0A80124E130E00E941A05F801C8
:1010E0009387828782E290E0E80EF91EC601B7017D
:1010F0000E940F041F910F91FF90EF90DF90CF900F
:101100000895EF92FF920F931F93CF93DF938C017B
:10111000FB01EC01A29680912207882399F4D80163
:1011200092968D919C9193972A813B8193963C93C3
:101130002E9392979B838A838FEF9FEF9F878E8753
:101140001B8A1A8A8D8581FF0DC080E68C8782E01C
:101150008C8B84E08D8B81E08E8B80EC8F8BE4E038
:10116000F0E002C080E58C8794E1E92EF12CEE0ED0
:10117000FF1E198A188A7A96BF0180E090E0AE01BE
:101180004850504032969F010E941A05998B888BD7
:1011900080912207882341F4C801B7010E94850786
:1011A00081E08093220704C0C801B7010E9454085F
:1011B000DF91CF911F910F91FF90EF900895CF9203
:1011C000DF92EF92FF920F931F93CF93DF937B01F8
:1011D0006A019BE0899FE0011124CD54D94F888199
:1011E0008330E9F48B010E5D1F4F4115510519F451
:1011F000222319F414C0222359F08CED90E00E94B0
:1012000080148DE00E947C1484E0888381E101C019
:1012100080E1F8018587C701B6010E948108DF914E
:10122000CF911F910F91FF90EF90DF90CF90089595
:10123000CF92DF92EF92FF920F931F93CF93DF93A2
:101240006B017C0180916F0490917004A0917104F6
:10125000B09172048C159D05AE05BF0519F480E0B0
:1012600090E01FC08091790490917A04A0917B0452
:10127000B0917C048C159D05AE05BF0519F481E085
:1012800090E00FC08091830490918404A091850424
:10129000B09186048C159D05AE05BF0579F482E0FA
:1012A00090E09C0153E0220F331F5A95E1F7880F1D
:1012B000991F280F391F2D583B4F48C003EB14E0EE
:1012C000E8012E96C8016FEF70E046E050E00E9402
:1012D000C61588E096E09093C0048093BF0420E098
:1012E00031E03093C2042093C10488E090E09B83F6
:1012F0008A8386E08C8384E08D833F832E83D801AC
:101300005696E2E1F4E086E001900D928150E1F71B
:1013100080919D0490919E04A0919F04B091A0049F
:101320008E879F87A88BB98B83ED94E026E0DC0144
:101330001D922A95E9F7C88ED98EEA8EFB8E80978A
:101340006CE170E00E94410820E030E0C901DF91CB
:10135000CF911F910F91FF90EF90DF90CF90089564
:101360006F927F928F929F92AF92BF92CF92DF92B5
:10137000EF92FF920F931F93CF93DF934C013B01AA
:10138000EC012E96E888F9880A891B8920919D0432
:1013900030919E0440919F045091A004A090A1041C
:1013A000B090A204C090A304D090A404D601C501BB
:1013B00080959095A095B095822B932BA42BB52B5F
:1013C000E816F9060A071B0741F4C4016FEF70E045
:1013D00046E050E00E94C61524C02E253F25402738
:1013E00051272A213B214C215D2121153105410541
:1013F000510541F0E090A504F090A6040091A704E7
:101400001091A804C801B7010E941809009711F4AF
:1014100080E038C0D401FC0186E001900D9281503B
:10142000E1F788E090E0F4019587848783010C5E02
:101430001F4F85E4868719821A830B831D821C82C5
:101440001F821E8280E488871B861A8680919D04F5
:1014500090919E04A0919F04B091A0048C879D87D9
:10146000AE87BF8760E070E080E090E0AE0124E1ED
:1014700030E00E941A059B878A87C401B8010E9448
:10148000410881E0DF91CF911F910F91FF90EF9084
:10149000DF90CF90BF90AF909F908F907F906F9094
:1014A0000895CF92DF92EF92FF920F931F936C01FA
:1014B000FC013E968C010E5D1F4FA8E0EA2EF12C38
:1014C000E60EF71E21E1218720919D0430919E04B4
:1014D00040919F045091A004248735874687578701
:1014E000F801F482E58217821682675E7F4F80E002
:1014F00090E0A601465E5F4F9701285F3F4F0E9434
:101500001A05F80197838683C601B7010E94B009C6
:101510001F910F91FF90EF90DF90CF9008954F9221
:101520005F926F927F928F929F92AF92BF92CF9273
:10153000DF92EF92FF920F931F93CF93DF934B01B4
:101540005C013A012901E3EBF6E0DD248081882388
:1015500031F0D3943B968AE0D816C1F77EC0EF01F4
:10156000309709F47AC011ECE12E14E0F12E8701D6
:101570000C5E1F4F8092D1049092D204A092D304AB
:10158000B092D40480919D0490919E04A0919F04F8
:10159000B091A0048093CD049093CE04A093CF0487
:1015A000B093D00486E08093CA04F801738262820B
:1015B0005092D6044092D5042091AF043091B004EB
:1015C0004091B1045091B204D90199278827820F24
:1015D000931FA41FB51F84839583A683B7831086AA
:1015E00011861286138680E6848722E025878FEF96
:1015F0009FEF97878687118A108A138A128A248B15
:1016000084E0858BCC24C394C68A80EC878B6EE102
:1016100070E080E090E0A701445F5F4F20E230E09F
:101620000E941A05F801918B808BC7010E9768E123
:1016300070E00E94B009882381F0C8828091AB04D9
:101640009091AC049A8389837C826B825E824D8206
:101650008F829886A986BA8602C0DD24DA948D2D01
:10166000DF91CF911F910F91FF90EF90DF90CF907E
:10167000BF90AF909F908F907F906F905F904F90B2
:1016800008950F931F93CF93DF9361EC74E08B0168
:101690000C5E1F4FEB016C962091AB043091AC04B3
:1016A0004091AD045091AE048091950490919604C0
:1016B000A0919704B0919804281739074A075B074F
:1016C00008F492C082E080932107215F3F4F4F4F83
:1016D0005F4F209395043093960440939704509362
:1016E00098048091AF049091B004A091B104B0919E
:1016F000B204AC0133272227282B392B4A2B5B2B32
:101700002093990430939A0440939B0450939C0433
:1017100010929D0410929E0410929F041092A004B7
:101720001092A1041092A2041092A3041092A40497
:101730001092A5041092A6041092A7041092A80477
:101740008FEF9FEFAFEFBFEF8093D1049093D20460
:10175000A093D304B093D40480E093E4D80113960B
:101760009C938E93129780E094E49093D604809398
:10177000D50480EFFE0111928A95E9F781E080930C
:10178000DD04898386E08A832C833D834E835F83D7
:1017900080E890E09B878A87FB01F896A2E1B4E09D
:1017A00086E00D9001928150E1F783E692E8A3E58F
:1017B000B3E68093C9059093CA05A093CB05B09377
:1017C000CC0585E38093CD0581E08093CE058093A1
:1017D000CF051092D0058FEF8093D10583EB94E075
:1017E00065EF70E00E94510A2091AB043091AC0487
:1017F0004091AD045091AE04809191049091920477
:10180000A0919304B0919404281739074A075B0705
:1018100008F4BEC060912107613009F0B9C0809121
:10182000AF049091B004A091B104B091B204AC01A6
:1018300033272227282B392B4A2B5B2B2093990403
:1018400030939A0440939B0450939C0480918D04A0
:1018500090918E04A0918F04B09190048093D10454
:101860009093D204A093D304B093D40480E093E483
:10187000D80113969C938E93129780E094E49093F2
:10188000D6048093D50480EFFE0111928A95E9F782
:101890006093DD04698386E08A832C833D834E83D5
:1018A0005F8380919D0490919E04A0919F04B091CC
:1018B000A0048C879D87AE87BF87A9EFB4E0E2E1E3
:1018C000F4E086E001900D928150E1F783E692E822
:1018D000A3E5B3E68093C9059093CA05A093CB0511
:1018E000B093CC05EDECF5E085E38093CD0581E088
:1018F0008093CE0513E01093CF051092D0059F0181
:101900002C5F3F4F82E38093D10544E0D9011196CB
:101910004C9380919D0490919E04A0919F04B0915E
:10192000A004E9018A839B83AC83BD833A9686E356
:101930008093D705418380918D0490918E04A0916E
:101940008F04B091900482839383A483B5838FEF37
:101950008093DD0583EB94E061E071E00E94510A21
:101960008823A1F48091AB049091AC04A091AD04C4
:10197000B091AE040596A11DB11D80939104909382
:101980009204A0939304B093940402C0109321078F
:10199000DF91CF911F910F9108951F93CF93DF9304
:1019A00010922207C3EBD6E010E088818823C9F0AB
:1019B00029813A8140E050E08091AB049091AC04E1
:1019C000A091AD04B091AE04821B930BA40BB50B98
:1019D0000B97A105B10528F01882812F61E00E94C4
:1019E000F1121F5F2B961A3001F7DF91CF911F91F3
:1019F00008952F923F924F925F926F927F928F92B3
:101A00009F92AF92BF92CF92DF92EF92FF920F938D
:101A10001F93DF93CF93CDB7DEB72D970FB6F89412
:101A2000DEBF0FBECDBF9D878C87603F710508F478
:101A300004C20E96998788872C853D852E5D3F4F81
:101A40003F832E83EAE28E2E912C8C859D85880E15
:101A5000991EDC019A968C91823009F0EEC1F40156
:101A600024813581468157818091990490919A040F
:101A7000A0919B04B0919C04281739074A075B0783
:101A800009F0DBC12C853D852A5E3E4FF90180813E
:101A90009181A281B381E651F140FD87EC878356A5
:101AA0009248A345B34609F0C8C1605F70405AE14F
:101AB000652E51E0752E2C853D85620E731E7B864A
:101AC0006A861A821B821C821D82222433242101F1
:101AD000EE24FF248701AA24BB246501198284C057
:101AE000AA85BB858C91882331F41196BB87AA8780
:101AF0006150704079C08F3F09F47AC0833381F11F
:101B0000843330F4813079F0833009F060C018C03C
:101B1000853321F0863309F05AC019C0EA85FB8568
:101B2000F281F98354C0AA85BB8512968D919D914F
:101B30000D90BC91A02D8A839B83AC83BD8347C04D
:101B4000EA85FB85228033804480558040C0AA8589
:101B5000BB851296AD90BD90CD90DC90159737C0A7
:101B6000EA85FB8582819381A481B581182F0027A6
:101B7000FF24EE242B2F332744275527E22AF32A6C
:101B8000042B152B292F3A2F4B2F552720704070EF
:101B90005070E22AF32A042B152BBA2FA92F982F65
:101BA000882780709070B070E82AF92A0A2B1B2BC6
:101BB000F1E6EF16F4E5FF06F0E00F07F0E01F078F
:101BC00030F0E0E6EE2EE4E5FE2E012D112DAA8583
:101BD000BB8511968C9111978E5F90E0A80FB91F6D
:101BE000BB87AA87681B790B6230710508F078CF34
:101BF000A114B104C104D10431F4E885F985A484A9
:101C0000B584C684D784F981F23021F0F53009F02B
:101C100014C17CC080EF90E00E9480148DE00E948F
:101C20007C1480912107823009F007C1F40180897A
:101C30009189A289B3890097A105B10509F4FDC076
:101C400023E0209321078FEF9FEFAFEFBFEFE885F1
:101C5000F985808B918BA28BB38B80E093E4AE816E
:101C6000BF8113969C938E93129780E094E4EC8549
:101C7000FD8593A382A385E3D3018C9351E0119654
:101C80005C93119712962C9394012D503F4FF901BC
:101C9000119282E3D90111968C9344E04183D401DF
:101CA0005096ED90FD900D911C915397E282F38236
:101CB00004831583F901379686E3D90117968C932F
:101CC00017974183A282B382C482D5828FEF1D967B
:101CD0008C93EC85FD8552A7D40150961D921D92E0
:101CE0001D921C925397F401148A158A168A178A3A
:101CF00080E890E093878287225F3F4F2819390957
:101D00008C859D85B9010E94510A97C086E091E0BB
:101D10000E9480148DE00E947C1480912107833002
:101D200009F08BC0E114F1040105110509F485C027
:101D300081E080932107A0928D04B0928E04C0921E
:101D40008F04D09290042091AB043091AC04409168
:101D5000AD045091AE04D801C701B695A7959795EB
:101D60008795820F931FA41FB51F809391049093B2
:101D70009204A0939304B0939404E20EF31E041F04
:101D8000151FE0929504F092960400939704109327
:101D90009804F40180899189A289B38980939D0474
:101DA00090939E04A0939F04B093A0048A819B818A
:101DB000AC81BD818093A1049093A204A093A3045D
:101DC000B093A4042092A5043092A6044092A704E4
:101DD0005092A8048AE191E00E94801460919D04D1
:101DE00070919E0480919F049091A0040E94FC1425
:101DF0008DE00E947C1485E291E00E948014609145
:101E0000A1047091A2048091A3049091A4040E9463
:101E1000FC148DE00E947C1482E391E00E94801407
:101E20006091A5047091A6048091A7049091A804E4
:101E30000E94FC148DE00E947C142D960FB6F8943D
:101E4000DEBF0FBECDBFCF91DF911F910F91FF90ED
:101E5000EF90DF90CF90BF90AF909F908F907F904A
:101E60006F905F904F903F902F9008950F931F9326
:101E7000CF93DF93EC016830710518F1FC01B29645
:101E8000948185818C01085010408281938180501B
:101E9000944461F48AE491E00E9480148DE00E94F1
:101EA0007C14CE01B8010E94F90C0BC089E591E0C9
:101EB0000E9480148DE00E947C14CE01B8010E9423
:101EC000F212DF91CF911F910F9108959F92AF92DF
:101ED000BF92CF92DF92EF92FF920F931F93CF9317
:101EE000DF935C018C01025F1F4FD80150962D914A
:101EF0003D914D915C91539780919D0490919E04EA
:101F0000A0919F04B091A004281739074A075B07E6
:101F100009F086C2E2E2CE2ED12CCA0CDB1C109254
:101F20002207F6019484E584F7E1EF22E3EBF6E083
:101F3000FF248081882311F1D8011C962D913D91B9
:101F40004D915C911F9787819085A185B285281757
:101F500039074A075B0791F4D6012D913C911197FF
:101F6000838194812817390749F412962D913C9169
:101F70001397858196812817390731F0F3943B96A2
:101F8000BAE0FB16B1F604C0EF01309709F035C195
:101F90008CE691E00E9480148DE00E947C14E2E0C7
:101FA000EE1609F03DC2E3EBF6E090E08081882375
:101FB00029F09F5F3B969A30C9F732C2EF01309704
:101FC00009F42EC2892FB5010E94E112882309F479
:101FD00027C282E088838091AB049091AC049A83FD
:101FE0008983D50192968D919C9193979C838B8345
:101FF000F601828193819E838D83F8018485958586
:10200000A685B7858F839887A987BA8781E991E0EC
:102010000E9480146F81788589859A850E94FC14BE
:102020008DE00E947C1481EA91E00E9480147B8103
:102030006C8180E090E00E94DC148DE00E947C14B2
:1020400084EB91E00E948014D6011496ED90FD90EF
:102050000D911C9117979E2D882777276627212F92
:10206000332744275527622B732B842B952B552719
:10207000412F302F2F2D207040705070622B732B0A
:10208000842B952B102F0F2DFE2CEE2420E030E01A
:102090004FEF50E0E222F322042315236E297F291B
:1020A000802B912B0E94DC148DE00E947C1481EE29
:1020B00091E00E948014D6011896ED90FD900D914C
:1020C0001C911B979E2D882777276627212F332762
:1020D00044275527622B732B842B952B5527412F93
:1020E000302F2F2D207040705070622B732B842B5B
:1020F000952B102F0F2DFE2CEE2420E030E04FEF1B
:1021000050E0E222F322042315236E297F29802B3D
:10211000912B0E94DC148DE00E947C1482E1D60198
:102120001D968C93C60161E070E00E94A904209185
:10213000AF043091B0044091B1045091B204D90180
:1021400099278827820F931FA41FB51FF601848348
:102150009583A683B783C50160E070E00E94810883
:1021600083E192E00E9480148DE00E947C148AE258
:1021700092E00E948014D60114966D917D918D910C
:102180009C9117970E94DC148DE00E947C148AE5D4
:1021900092E00E948014F601E084F18402851385A8
:1021A0009E2D882777276627212F332744275527F9
:1021B000622B732B842B952B5527412F302F2F2DDE
:1021C000207040705070622B732B842B952B102F36
:1021D0000F2DFE2CEE2420E030E04FEF50E0E22205
:1021E000F322042315236E297F29802B912B0E9433
:1021F000DC148DE00E947C1413C1892D90E0807F57
:10220000907095958795959587958B01081B190B6F
:102210008BE992E00E9480148DE00E947C1481EA98
:1022200091E00E9480147B816C8180E090E00E94AC
:10223000DC1488EB92E00E948014B80180E090E00A
:102240000E94DC148DE00E947C1431E0E31619F446
:1022500080EC92E00BC040E1E41619F482ED92E0CC
:1022600005C054E0E51639F484EE92E00E94801433
:102270008DE00E947C148091AB049091AC049A8311
:1022800089838881823039F1833020F4813009F0EC
:10229000C7C006C08330B9F1843009F0C1C066C040
:1022A00082E1E816D9F486EF92E00E9480148DE076
:1022B0000E947C1480E1D6011D968C93C60161E0DA
:1022C00070E00E94A904C50160E070E00E948108EE
:1022D00083E0888313C0B0E1EB1611F01882A0C030
:1022E0008BE193E00E9480148DE00E947C1483E0D7
:1022F0008883C60160E070E00E94A9048F2DB501BB
:102300000E94F0128DC08E2D86718031D1F584E44B
:1023100093E00E9480148DE00E947C14E1E1EE16AF
:1023200051F4B8016F5F7F4FC6010E94A904D60126
:102330001D96EC923EC0C601B8010E94A904011589
:10234000110579F08CE693E00E9480148DE00E94E4
:102350007C1480E1F6018587C50160E070E00E9491
:1023600081088F2DB501A80120E058C08E2D8671FF
:10237000803159F08DE793E00E9480148DE00E9437
:102380007C1418828F2D61E025C085E993E00E94BE
:1023900080148DE00E947C14F1E1EF16F1F4B80195
:1023A0006F5F7F4FC6010E94A90480E1D6011D9690
:1023B0008C93C50160E070E00E94810818820115CD
:1023C000110531F08F2DB501A80121E00E942C13D9
:1023D0008F2D60E00E94F11223C00115110501F15B
:1023E0008AEB93E00E9480148DE00E947C14C60169
:1023F000B8010E94A90480E1F60185878CE693E08C
:102400000E9480148DE00E947C14C50160E070E0A1
:102410000E9481088F2DB501A80121E00E942C1394
:10242000DF91CF911F910F91FF90EF90DF90CF90B0
:10243000BF90AF909F900895CF92DF92EF92FF925E
:102440000F931F93CF93DF936C0181ED93E00E9474
:1024500080148DE00E947C14E6012E960A851B856F
:102460001B861A86F6018685853409F062C060E015
:1024700070E080E090E0AE0124E130E00E941A05B7
:102480008017910709F055C0E888F9880A891B89E7
:1024900020919D0430919E0440919F045091A0048E
:1024A000E216F30604071507A9F08091A1049091A4
:1024B000A204A091A304B091A40480959095A09546
:1024C000B095822B932BA42BB52BE816F9060A079F
:1024D0001B0779F59A818B818C0104511040498545
:1024E0004630E1F0413171F0413019F58BED93E068
:1024F0000E9480148DE00E947C14C601B8010E94E5
:10250000CA0717C089EE93E00E9480148DE00E94F4
:102510007C14C601B8010E94360F0BC086EF93E011
:102520000E9480148DE00E947C14C601B8010E94B4
:10253000660FDF91CF911F910F91FF90EF90DF9089
:10254000CF9008950F931F93CF93DF938C01EB01EE
:1025500083E094E00E9480148DE00E947C14CE30D1
:10256000D105A0F0F801848595858830910549F062
:102570008850964059F42E97C801BE010E949E06CD
:1025800005C02E97C801BE010E941C128DE00E945A
:102590007C14DF91CF911F910F91089504C083EBBC
:1025A00094E00E94A21283EB94E060E072E00E944B
:1025B0004B04BC01009799F70E94410B0E94CD0C7F
:1025C0000895FB0124A135A180E52030380711F4DE
:1025D00081E0089580E02D5A3C4909F481E0089596
:1025E000089508958EE194E00E9480148DE00E9489
:1025F0007C1408951F930E9473148CE394E00E944E
:1026000080148DE00E947C1488EC90E020E931E099
:10261000F9013197F1F70197D9F7D09AD89A0E942A
:10262000B4050E94C00178940E943F1314BA8FEF42
:1026300085BB10E083B38F3F29F0112311F40E9472
:10264000CC0511E00E94CE120E94A405882311F04F
:10265000D898F0CFD89AEECF0E9444130895DC01A9
:10266000CB0108C0ED91FC91119721931196FC9339
:10267000EE930196FC0124912223A1F70895889AF4
:10268000909A1092230708958F929F92AF92BF92D3
:10269000CF92DF92EF92FF920F931F93CF93DF932E
:1026A000882E5B01FB01B2968485452B09F40EC18F
:1026B000C82FD0E0C07FD070D595C795D595C79568
:1026C000CE0FDF1F86E3C82ED12CC60ED71ECE013B
:1026D00062EA72E044E050E00E94B015892B09F0F4
:1026E000ECC02496CE0160E270E00E94CD15FC01A2
:1026F000009709F4E2C01082CE016FE370E00E94FF
:10270000CD15FC018C01009719F010820F5F1F4F4F
:10271000CE0160EA72E00E94BD15892B21F0D6013E
:10272000E4E5F0E0C6C00115110519F48FE494E06A
:1027300002C08BE594E00E9480148DE00E947C141E
:102740009924939454C0C80166E270E00E94CD15AC
:10275000FC017C01009721F010820894E11CF11C1F
:10276000C8016DE370E00E94CD15FC01EC010097FB
:1027700011F010822196C8016CE972E00E94BD152B
:10278000892BC1F42097B1F0CE0169E972E00E9473
:10279000BD15892B21F490989092230727C0CE0174
:1027A00065E972E00E94BD15892B01F5909A10929F
:1027B00023071CC0C80160E972E00E94BD15892B87
:1027C000A9F4209799F0CE016DE872E00E94BD1542
:1027D000892B19F41092240709C0CE016AE872E02F
:1027E0000E94BD15892B11F49092240787010115D1
:1027F000110509F0A8CFD601E8EEF0E002C08D93F4
:10280000319684918823D9F7E4E8F2E002C08D93F1
:10281000319684918823D9F780912407882319F071
:10282000E8E0F2E00BC0E6E4F2E002C08D933196FE
:1028300084918823D9F705C08D933196849188239C
:10284000D9F78091230790912407882371F4992365
:1028500019F0EAE7F1E019C0ECEDF1E002C08D9368
:10286000319684918823D9F713C0992319F0E4E4B1
:10287000F1E013C0EFEAF1E002C08D93319684914C
:102880008823D9F705C08D93319684918823D9F791
:10289000EDE3F1E008C08D93319684918823D9F758
:1028A000F7CF8D93319684918823D9F707C08D9304
:1028B000319684918823D9F701C0D601AC19BD099E
:1028C000882DB501AD0121E00E94DF08DF91CF9195
:1028D0001F910F91FF90EF90DF90CF90BF90AF903E
:1028E0009F908F90089510BC87E689B91BB888E146
:1028F0008AB986E880BD08955D9BFECF8CB90895A6
:10290000FC0104C05D9BFECF31968CB98081882389
:10291000C9F7089590E068EE73E00E946715382FBC
:102920006AE00E945B15282F5D9BFECF822F6AE034
:102930000E945B15805D8CB95D9BFECF822F6AE0A3
:102940000E945B15905D9CB95D9BFECF832F6AE072
:102950000E945B15905D9CB90895DF92EF92FF9203
:102960000F931F93CF93DF937B018C01FA011286A3
:10297000EA0189E0D82EB701C8012AE030E040E042
:1029800050E00E947A15605D6987B701C8012AE0AE
:1029900030E040E050E00E947A1579018A01DA9433
:1029A00021978FEFD81639F7DF91CF911F910F91B3
:1029B000FF90EF90DF9008950F931F93DF93CF93D5
:1029C000CDB7DEB72B970FB6F894DEBF0FBECDBFE5
:1029D0008E010F5F1F4FA8010E94AD14C8010E9415
:1029E00080142B960FB6F894DEBF0FBECDBFCF91EB
:1029F000DF911F910F910895EF92FF920F931F9314
:102A00007B018C01862F0E948A145D9BFECF8EE293
:102A10008CB9BB27A12F902F8F2D0E948A145D9B0C
:102A2000FECF8EE28CB9C801AA27BB270E948A1468
:102A30005D9BFECF8EE28CB9812F9927AA27BB27F9
:102A40000E948A145D9BFECF8EE28CB91F910F917C
:102A5000FF90EF900895CF93DF93EC0188810E945F
:102A60008A145D9BFECF8EE28CB989810E948A1404
:102A70005D9BFECF8EE28CB98A810E948A145D9B99
:102A8000FECF8EE28CB98B810E948A145D9BFECFB3
:102A90008EE28CB98C810E948A145D9BFECF8EE2FF
:102AA0008CB98D810E948A145D9BFECF8EE28CB919
:102AB000DF91CF910895991B79E004C0991F961773
:102AC00008F0961B881F7A95C9F78095089597FBA3
:102AD000092E07260AD077FD04D02ED006D000207C
:102AE0001AF4709561957F4F0895F6F7909581954A
:102AF0009F4F0895A1E21A2EAA1BBB1BFD010DC01A
:102B0000AA1FBB1FEE1FFF1FA217B307E407F5079D
:102B100020F0A21BB30BE40BF50B661F771F881F79
:102B2000991F1A9469F760957095809590959B010F
:102B3000AC01BD01CF010895AA1BBB1B51E107C029
:102B4000AA1FBB1FA617B70710F0A61BB70B881F3D
:102B5000991F5A95A9F780959095BC01CD010895CC
:102B6000FB01DC0104C08D910590801921F44150D6
:102B70005040C8F7881B990B0895FB01DC018D912B
:102B8000059080190110D9F3990B0895DC0101C05B
:102B90006D9341505040E0F70895FC0181918617F4
:102BA00021F08823D9F7992708953197CF01089507
:042BB000F894FFCFC7
:102BB400000048656C6C6F2066726F6D2041565240
:102BC4002052455354205345525649434500202032
:102BD400476F74206172702100202020476F742099
:102BE40061727020726571756573742100202047CD
:102BF4006F742061727020726573706F6E636521EB
:102C0400002020202020476F742049434D50206528
:102C140063686F210020202020476F7420756E6444
:102C24006566696E642049434D50210020202020B0
:102C340020202853454E442046494E41434B290009
:102C4400202020202020476F742044484350206FC8
:102C5400666665722100202020202020476F7420A2
:102C6400444843502061636B210020202020202011
:102C74002049703A00202020202020204D61736BD1
:102C84003A002020202020202044656661756C7461
:102C940020476174657761793A002020202020471D
:102CA4006F742044484350210020202020476F7433
:102CB40020726561646C205544502100202020203E
:102CC400205468657265206973206E6F20636F6E8F
:102CD4006E656374696F6E20696E20706F6F6C210E
:102CE40000202020202052656D6F74652049703AC1
:102CF4000020202020202052656D6F746520506FC5
:102D040072743A00202020202020205265717565BD
:102D14007374202852414E444F4D292073747265B8
:102D2400616D20706F696E74657228736571293ADC
:102D340000202020202020202052657175657374A6
:102D440020285A45524F2920636F6E6669726D615F
:102D540074696F6E20706F696E7465722861636B3D
:102D6400293A0020202020202020202853656E644A
:102D74002053594E2F41434B29002020202020204E
:102D8400202020526573706F6E6365202852414E77
:102D9400444F4D292073747265616D20706F696EA4
:102DA40074657228736571293A0020202020202040
:102DB40020202020526573706F6E63652028526551
:102DC40071756573742E52414E444F4D2B31292039
:102DD400636F6E6669726D6174696F6E20706F697E
:102DE4006E7465722861636B293A002020202020CC
:102DF400476F7420636F6E6E656374696F6E2069CC
:102E04006E20706F6F6C21002020204C656E3A009C
:102E1400202020202020524543454956452046493C
:102E24004E0020202020202052454345495645206D
:102E340041434B0020202020202052454345495641
:102E4400452052535400202020202020436F6E6ED2
:102E5400656374696F6E207374617475733D544354
:102E6400505F53594E5F53454E540020202020207C
:102E740020436F6E6E656374696F6E207374617442
:102E840075733D5443505F53594E5F524543454912
:102E940056454400202020202020436F6E6E656339
:102EA40074696F6E207374617475733D5443505F1D
:102EB40045535441424C4953484544002020202066
:102EC40020202853454E442041434B2900202020F4
:102ED400202020204552524F5220434F4E454E430E
:102EE40054494F4E00202020202020436F6E6E65F1
:102EF4006374696F6E207374617475733D544350C9
:102F04005F46494E5F57414954002020202020202D
:102F1400204E4520434F4E4543204E4F204C454EB6
:102F2400002020476F742069702100202020204752
:102F34006F742049434D50210020202020476F7496
:102F440020554450210020202020476F74205443F2
:102F540050210020476F742065746865726E657433
:102F6400210000133701234500123456789A20209B
:102F74002020205468657265206973206E6F206874
:102F8400616E646C6572207965742100537461729A
:102F9400742073657276696365203A44203A002090
:102FA4004E6F20706172616D7321002057697468DF
:0A2FB40020706172616D732100004E
:00000001FF
